:100000000C9435000C945D000C945D000C945D0024
:100010000C945D000C945D000C945D000C945D00EC
:100020000C945D000C945D000C945D000C948100B8
:100030000C945D000C945D000C945D000C945D00CC
:100040000C9400030C945D000C949E010C94E1014F
:100050000C945D000C945D000C945D000C945D00AC
:100060000C945D000C945D009D0211241FBECFEF27
:10007000D8E0DEBFCDBF11E0A0E0B1E0EEEFF7E0E9
:1000800002C005900D92A231B107D9F712E0A2E1AA
:10009000B1E001C01D92A934B107E1F710E0CAE652
:1000A000D0E004C02297FE010E94F903C836D107B0
:1000B000C9F70E94F3020C94FD030C94000040E881
:1000C00055E260E070E086E991E00E941C02F8943D
:1000D00010928000E1E8F0E010821092850010920A
:1000E00084008FE39FE19093890080938800808152
:1000F0008A608083EFE6F0E080818260808378947C
:1001000008951F920F920FB60F9211242F933F93D1
:100110004F935F936F937F938F939F93AF93BF930F
:10012000EF93FF938EE00E94E900E0911401F091BB
:10013000150195958795959587958068EA5EFE4FA0
:1001400080838091140190911501019660E870E020
:100150000E94AD039093150180931401FF91EF91DC
:10016000BF91AF919F918F917F916F915F914F91CF
:100170003F912F910F900FBE0F901F901895CF9326
:10018000DF93C0E8D0E020911201309113018091FB
:1001900014019091150128173907C1F0E09112015F
:1001A000F0911301EA5EFE4F608186E991E00E94C2
:1001B000600180911201909113010196BE010E948D
:1001C000AD039093130180931201DDCFDF91CF91A6
:1001D00008958E3008F08E5087702091000190E4D1
:1001E000299F90011124822B80937C0080917A00BA
:1001F000806480937A0080917A0086FDFCCF8091A4
:1002000078002091790090E0922B0895FC012485DC
:100210003585F901E05CFF4F80819181F901EE5B4A
:10022000FF4F20813181821B930B8F739927089593
:10023000FC0184859585FC01E05CFF4F4081518184
:10024000FC01EE5BFF4F208131814217530741F0E3
:100250000190F081E02DE80FF91F808190E0089572
:100260008FEF9FEF0895FC0184859585FC01E05C8C
:10027000FF4F40815181FC01EE5BFF4F20813181B6
:100280004217530779F0A081B181A80FB91F8C9153
:10029000208131812F5F3F4F2F733327318320839C
:1002A00090E008958FEF9FEF0895FC0181A18823CE
:1002B00029F0A489B5898C9186FFFBCF11A20895FE
:1002C000CF93DF93FC0126853785D901A05CBF4F12
:1002D0008D919C91119701968F739927E901CE5BBF
:1002E000DF4F4881598184179507D9F30D90BC9150
:1002F000A02DA20FB31F6C93A685B785A05CBF4F3E
:1003000011969C938E93A689B7892C9181E090E0F9
:10031000078C02C0880F991F0A94E2F7282B2C93B0
:1003200081E081A30488F589E02D80818064808349
:1003300081E090E0DF91CF91089508951F920F9290
:100340000FB60F9211242F933F934F938F939F9348
:10035000EF93FF938091C00082FD1CC04091C600C6
:1003600080913C0290913D0201968F7399272091D4
:100370003E0230913F028217930771F0E0913C02F8
:10038000F0913D02E450FE4F408390933D028093F4
:100390003C0202C08091C600FF91EF919F918F9126
:1003A0004F913F912F910F900FBE0F901F90189576
:1003B00086E991E00E940601892B11F00C949D01C1
:1003C00008951F920F920FB60F9211242F933F930F
:1003D0008F939F93EF93FF932091F8013091F90150
:1003E0008091FA019091FB012817390731F480912F
:1003F000C1008F7D8093C10014C0E091FA01F0919B
:10040000FB01E854FE4F20818091FA019091FB019D
:1004100001968F7399279093FB018093FA012093A3
:10042000C600FF91EF919F918F913F912F910F9077
:100430000FBE0F901F901895CF92DF92EF92FF9210
:10044000CF93DF93EC016A017B01411581EE5807E0
:1004500061057105F9F0EC89FD8981E090E008A063
:1004600002C0880F991F0A94E2F7808360E079E068
:100470008DE390E0A70196010E94C103215031094C
:10048000410951095695479537952795211580E1E2
:10049000380798F0EC89FD89108260E874E88EE1F5
:1004A00090E0A70196010E94C10321503109410942
:1004B00051095695479537952795E889F9893083ED
:1004C000EA89FB89208319A2EE89FF89408181E0B6
:1004D00090E09C010C8C02C0220F331F0A94E2F7BB
:1004E000422B4083EE89FF8940819C010D8C02C024
:1004F000220F331F0A94E2F7422B4083EE89FF89D3
:1005000040819C010E8C02C0220F331F0A94E2F737
:10051000422B4083EE89FF8920810F8C02C0880F17
:10052000991F0A94E2F7809582238083DF91CF910F
:10053000FF90EF90DF90CF90089510929901109264
:10054000980188EE93E0A0E0B0E080939A01909348
:100550009B01A0939C01B0939D0185E091E0909355
:100560009701809396018CEF91E09093A301809383
:10057000A20188EB91E09093A5018093A40185EC02
:1005800090E09093A7018093A60184EC90E0909373
:10059000A9018093A80180EC90E09093AB01809337
:1005A000AA0181EC90E09093AD018093AC0182ECC4
:1005B00090E09093AF018093AE0186EC90E0909331
:1005C000B1018093B00184E08093B20183E0809315
:1005D000B30187E08093B40185E08093B50181E0A9
:1005E0008093B60108950E944A030E945F00C8EDFF
:1005F000D1E00E94BF002097E1F30E94D801F9CF1B
:100600001F920F920FB60F9211242F933F938F9347
:100610009F93AF93BF938091410290914202A0912A
:100620004302B09144023091400223E0230F2D3762
:1006300020F40196A11DB11D05C026E8230F0296E6
:10064000A11DB11D2093400280934102909342026C
:10065000A0934302B09344028091450290914602D8
:10066000A0914702B09148020196A11DB11D80934F
:10067000450290934602A0934702B0934802BF916F
:10068000AF919F918F913F912F910F900FBE0F903F
:100690001F901895789484B5826084BD84B581607C
:1006A00084BD85B5826085BD85B5816085BDEEE67A
:1006B000F0E0808181608083E1E8F0E01082808159
:1006C00082608083808181608083E0E8F0E08081C7
:1006D00081608083E1EBF0E0808184608083E0EBE7
:1006E000F0E0808181608083EAE7F0E080818460CF
:1006F000808380818260808380818160808380812B
:10070000806880831092C1000895CF92DF92EF92AB
:10071000FF920F931F93CF93DF936C017A01EB014C
:10072000E60EF71E00E010E0CE15DF0561F06991DE
:10073000D601ED91FC910190F081E02DC601099563
:10074000080F191FF1CFC801DF91CF911F910F91B1
:10075000FF90EF90DF90CF90089597FB072E16F44F
:10076000009407D077FD09D00E94E30307FC05D071
:100770003EF4909581959F4F0895709561957F4FB8
:100780000895A1E21A2EAA1BBB1BFD010DC0AA1FD2
:10079000BB1FEE1FFF1FA217B307E407F50720F0EA
:1007A000A21BB30BE40BF50B661F771F881F991F65
:1007B0001A9469F760957095809590959B01AC01AE
:1007C000BD01CF010895AA1BBB1B51E107C0AA1FA1
:1007D000BB1FA617B70710F0A61BB70B881F991FE2
:1007E0005A95A9F780959095BC01CD010895EE0F1B
:0E07F000FF1F0590F491E02D0994F894FFCFBF
:1007FE000100000000600185030601330118015558
:02080E000100E7
:00000001FF
